:100000000C9434000C9451000C9451000C94510049
:100010000C9451000C9451000C9451000C9451001C
:100020000C9451000C9451000C9451000C9451000C
:100030000C9451000C9451000C9451000C945100FC
:100040000C9451000C9451000C9451000C945100EC
:100050000C9451000C9451000C9451000C945100DC
:100060000C9451000C94510011241FBECFEFD8E026
:10007000DEBFCDBF15E0A0E0B1E0E2E0F3E102C0F9
:1000800005900D92A236B107D9F715E0A2E6B5E0CA
:1000900001C01D92A836B107E1F70E9425040C9417
:1000A0007F090C940000BC018091B9008E7F809381
:1000B000B9008091B9008D7F8093B90080ED97E001
:1000C0000E945306603130F0862F90E0409795955E
:1000D0008795682F6093B800089588E290E00E94A9
:1000E0005300ECEBF0E080818460808308953C9ABB
:1000F00084EA8093BC00089584E98093BC0008954D
:1001000020E030E002C02F5F3F4F8091BC0087FDB0
:1001100003C02A353105B9F70895882329F0809165
:10012000BC008F70806C04C08091BC008F708068B0
:100130008093BC0008958091BB0008958091B90020
:1001400008950BC020E00000000000000000000047
:1001500000002F5F2A35B9F70197009799F70895A6
:100160001F93182F81E090E00E94A1003C9A109309
:10017000BB0084E88093BC001F9108951F93182F43
:100180008091BC008B7F8093BC008091BC00846018
:100190008093BC003C9A84EA8093BC0020E030E06D
:1001A00002C02F5F3F4F8091BC0087FD03C02A35FE
:1001B0003105B9F782ED0E94B00020E030E002C0C6
:1001C0002F5F3F4F8091BC0087FD03C02A3531056A
:1001D000B9F7812F0E94B00020E030E002C02F5F0D
:1001E0003F4F8091BC0087FD03C02A353105B9F728
:1001F0003C9A84EA8093BC0083ED0E94B00020E02A
:1002000030E002C02F5F3F4F8091BC0087FD03C0EC
:100210002A353105B9F780E00E948D0020E030E0FA
:1002200002C02F5F3F4F8091BC0087FD03C02A357D
:100230003105B9F79091BB0020E030E002C02F5F9C
:100240003F4F8091BC0087FD03C02A353105B9F7C7
:1002500084E98093BC008091BC008B7F8093BC00BC
:100260008091BC0084608093BC00892F1F91089509
:100270000F931F93182F062F3C9A84EA8093BC009B
:1002800020E030E002C02F5F3F4F8091BC0087FD2F
:1002900003C02A353105B9F782ED0E94B00020E095
:1002A00030E002C02F5F3F4F8091BC0087FD03C04C
:1002B0002A353105B9F7812F0E94B00020E030E0E7
:1002C00002C02F5F3F4F8091BC0087FD03C02A35DD
:1002D0003105B9F7802F0E94B00020E030E002C065
:1002E0002F5F3F4F8091BC0087FD03C02A35310549
:1002F000B9F784E98093BC001F910F91089529B14B
:1003000030E0369527953695279521703070C901D4
:1003100008959093C5008093C40082E08093C0004C
:1003200088E18093C10086E08093C20083E595E078
:100330009093650580936405089580E684B983E110
:1003400087B98AEF8AB980E388B988E090E00E9493
:10035000890108951F93182F8A3019F48DE00E94A7
:10036000AA018091C00085FFFCCF1093C60080E0F9
:1003700090E01F910895982F8091C00085FFFCCFD9
:100380009093C60008958091C00087FFFCCF8091B4
:10039000C600089580E00E94BE0000D000D0EDB7F6
:1003A000FEB7319620E031E0ADB7BEB712963C9370
:1003B0002E931197828313820E947A060F900F90DA
:1003C0000F900F9088EE93E00E94A10085E10E94BB
:1003D000BE0000D000D0EDB7FEB7319628E131E085
:1003E000ADB7BEB712963C932E93119782831382BA
:1003F0000E947A060F900F900F900F9086E10E9456
:10040000BE0000D000D0EDB7FEB7319621E331E059
:10041000ADB7BEB712963C932E9311978283138289
:100420000E947A060F900F900F900F9087E10E9424
:10043000BE0000D000D0EDB7FEB7319627E431E022
:10044000ADB7BEB712963C932E9311978283138259
:100450000E947A060F900F900F900F908AE10E94F1
:10046000BE0000D000D0EDB7FEB731962DE531E0EB
:10047000ADB7BEB712963C932E9311978283138229
:100480000E947A060F900F900F900F908BE10E94C0
:10049000BE0000D000D0EDB7FEB7319626E731E0C0
:1004A000ADB7BEB712963C932E93119782831382F9
:1004B0000E947A060F900F900F900F908CE10E948F
:1004C000BE0000D000D0EDB7FEB731962FE831E086
:1004D000ADB7BEB712963C932E93119782831382C9
:1004E0000E947A060F900F900F900F908DE10E945E
:1004F000BE0000D000D0EDB7FEB7319628EA31E05B
:10050000ADB7BEB712963C932E9311978283138298
:100510000E947A060F900F900F900F908EE10E942C
:10052000BE0000D000D0EDB7FEB7319622EC31E02E
:10053000ADB7BEB712963C932E9311978283138268
:100540000E947A060F900F900F900F908FE10E94FB
:10055000BE0000D000D0EDB7FEB731962CED31E0F3
:10056000ADB7BEB712963C932E9311978283138238
:100570000E947A060F900F900F900F9080E20E94D9
:10058000BE0000D000D0EDB7FEB7319626EF31E0C7
:10059000ADB7BEB712963C932E9311978283138208
:1005A0000E947A060F900F900F900F9081E20E94A8
:1005B000BE0000D000D0EDB7FEB7319620E132E0AA
:1005C000ADB7BEB712963C932E93119782831382D8
:1005D0000E947A060F900F900F900F9082E20E9477
:1005E000BE0000D000D0EDB7FEB731962AE232E06F
:1005F000ADB7BEB712963C932E93119782831382A8
:100600000E947A060F900F900F900F908EE30E9439
:10061000BE0000D000D0EDB7FEB7319624E432E042
:10062000ADB7BEB712963C932E9311978283138277
:100630000E947A060F900F900F900F9008952F92BE
:100640003F924F925F926F927F928F929F92AF9262
:10065000BF92CF92DF92EF92FF920F931F93DF939F
:10066000CF93CDB7DEB72A970FB6F894DEBF0FBE93
:10067000CDBF89879A872DB73EB738872F835C0116
:10068000880F991F6DB77EB7681B790B0FB6F8946A
:100690007EBF0FBE6DBF4DB75EB74F5F5F4FADB74B
:1006A000BEB7A81BB90B0FB6F894BEBF0FBEADBF47
:1006B0002DB73EB72F5F3F4FEDB7FEB7E81BF90BE5
:1006C0000FB6F894FEBF0FBEEDBF39018DB69EB6D2
:1006D0000894811C911C1A011E821D821C821B829F
:1006E0001A8219824424552456C08AE10E94BE0011
:1006F00080FFFBCF8FE10E94BE00D82ECC24D30117
:10070000CD92DC9280E20E94BE0090E08C299D296F
:10071000F3019183808381E20E94BE00F82EEE24D3
:10072000D401ED92FC9282E20E94BE0090E08E29FC
:100730009F29F401918380838DE10E94BE00182FD0
:1007400000E0D1010D931C938EE10E94BE0090E069
:10075000802B912BF101819391931F012D813E817B
:10076000280F391F3E832D83D3018D919D913D012B
:10077000EB81FC81E80FF91FFC83EB83D4018D91A1
:100780009D914D01E981FA81E80FF91FFA83E98310
:100790000894411C511C4A145B0408F4A6CF2DB7E1
:1007A0003EB7285030400FB6F8943EBF0FBE2DBF65
:1007B000EDB7FEB731968AE592E0ADB7BEB71296B7
:1007C0009C938E9311978D819E8169857A850E9475
:1007D0006706738362838B819C8169857A850E9419
:1007E00067067583648389819A8169857A850E9409
:1007F0006706778366830E947A06EDB7FEB7389660
:100800000FB6F894FEBF0FBEEDBF2F8138850FB62F
:10081000F8943EBF0FBE2DBF2A960FB6F894DEBFE8
:100820000FBECDBFCF91DF911F910F91FF90EF9041
:10083000DF90CF90BF90AF909F908F907F906F9000
:100840005F904F903F902F9008952F923F924F923C
:100850005F926F927F928F929F92AF92BF92CF9250
:10086000DF92EF92FF920F931F93CF93DF930E943B
:100870009D010E946D0084E690E00E94A1008EE33D
:1008800060E80E94380185E160E00E94380186E15D
:1008900068E10E94380187E165E00E9438018EE33B
:1008A00060E00E94380188EE93E00E94A100C1E060
:1008B000D0E02FEA422E22E0522E97ED292E92E030
:1008C000392E8DE4882E85E0982E00E5C02E05E0B7
:1008D000D02E11E1A12E14E0B12EB3ED6B2EB3E0BA
:1008E0007B2E85E692E00E94960682E892E00E94C6
:1008F00096068EE992E00E94960600D000D0ADB731
:10090000BEB712965C924E9211971496DC93CE93DA
:1009100013970E947A060F900F900F900F9085E129
:100920000E94BE0000D000D0EDB7FEB73196ADB743
:10093000BEB712963C922E921197828313820E9428
:100940007A060F900F900F900F9086E10E94BE00E4
:1009500000D000D025E033E0EDB7FEB7328321832D
:1009600090E087709070948383830E947A060F9042
:100970000F900F900F908EE30E94BE0000D000D029
:10098000EDB7FEB7319627E333E0ADB7BEB71296A9
:100990003C932E931197828313820E947A060F90C4
:1009A0000F900F900F908DE693E00E949606809135
:1009B000C00087FFFCCF8091C6008133C9F58CE869
:1009C00093E00E94960682EB93E00E94960681ECEB
:1009D00093E00E949606EE24FF24870122C000D0F7
:1009E00000D000D0ADB7BEB712967C926E92119730
:1009F000EDB7FEB7E382F482058316830E947A0680
:100A00002DB73EB72A5F3F4F0FB6F8943EBF0FBEDB
:100A10002DBFCE010E941F030894E11CF11C011D93
:100A2000111D8091C00087FFDACF8091C60059CF99
:100A30008233D9F588ED93E00E949606C0E0D0E0BD
:100A40008091C00087FFFCCF0091C6000D3019F1E6
:100A500000530A30A8F710E000D000D0ADB7BEB701
:100A60001296BC92AE92119714961C930E93139704
:100A70000E947A06CE01A3E0880F991FAA95E1F79C
:100A8000CC0FDD1FC80FD91FC00FD11F0F900F90C3
:100A90000F900F90D5CF8AE090E00E948F062097AC
:100AA00009F01FCFC1E0D0E01CCF833309F041C073
:100AB00084E194E00E9496068BE594E00E949606FD
:100AC00000E010E08091C00087FFFCCF8091C6005D
:100AD0008D3031F1E0EDFE2EF80EB9E0BF1590F348
:100AE00000D000D0EDB7FEB73196ADB7BEB71296C5
:100AF000BC92AE921197F28213820E947A06C801CC
:100B000073E0880F991F7A95E1F7000F111F080F06
:100B1000191F0F0D111D0F900F900F900F90D2CF36
:100B200085E1602F0E9438018AE090E00E948F06E4
:100B3000D8CE8433A9F58AE994E00E9496068CEB1E
:100B400094E00E94960684ED94E00E94960681EE61
:100B500094E00E9496068EEE94E00E9496068AEF3C
:100B600094E00E94960686E095E00E94960682E157
:100B700095E00E9496068EE195E00E94960680918F
:100B8000C00087FFFCCF6091C600862F805387305E
:100B900020F4682F686186E17DC089E295E0EDCFA1
:100BA000853309F07AC081E395E00E94960600D073
:100BB000EDB7FEB7928281820E947A060F900F9065
:100BC0008091C00087FFFCCF9091C600092F005391
:100BD0000A3068F0892F8154863018F4092F0753A2
:100BE00006C0892F81568630B0F4092F075500D0F2
:100BF00000D0EDB7FEB73196ADB7BEB71296DC9216
:100C0000CE921197028313820E947A060F900F9062
:100C10000F900F9005C089E295E00E94960600E0D3
:100C20008091C00087FFFCCF9091C600192F105310
:100C30001A3030F0892F81548630B0F4192F1753B1
:100C400000D000D0EDB7FEB73196ADB7BEB7129663
:100C5000DC92CE921197128313820E947A060F9033
:100C60000F900F900F900CC0892F8156863018F48A
:100C7000192F1755E5CF89E295E00E94960610E0FE
:100C80000295007F8AE090E00E948F061F70102B73
:100C90008EE3612F0E94380124CE863309F021CEE5
:100CA0000E94CA011ECEAA1BBB1B51E107C0AA1F8E
:100CB000BB1FA617B70710F0A61BB70B881F991FFD
:100CC0005A95A9F780959095BC01CD01089597FBA1
:100CD000092E07260AD077FD04D0E5DF06D00020D4
:100CE0001AF4709561957F4F0895F6F79095819568
:100CF0009F4F0895A0E0B0E0E0E8F6E00C945809BA
:100D0000FE01359661917191809164059091650520
:100D1000AF010E94CB062096E2E00C94740960912A
:100D20006405709165050E94BE0808950F931F9396
:100D3000CF93DF938C01E0916405F0916505838189
:100D400081FF21C0C0E0D0E00DC0E0916405F091CA
:100D5000650520853185BF01F9010995892B11F0C1
:100D6000CFEFDFEFF80181918F01882371F7E091D8
:100D70006405F0916505208531858AE0BF01F901A0
:100D80000995892B11F0CFEFDFEFCE01DF91CF91E5
:100D90001F910F910895ABE0B0E0E1EDF6E00C9407
:100DA00048093C012B015A01FC01178216828381FC
:100DB00081FD03C06FEF7FEFC6C19AE0892E1E014F
:100DC0000894211C311CF3012381F20123FD85913C
:100DD00023FF81912F01882309F4B2C1853239F4B0
:100DE00023FD859123FF81912F01853229F490E025
:100DF000B3010E94BE08E7CF982FFF24EE24992468
:100E0000FFE1FF15D0F09B3269F09C3228F490325C
:100E100059F0933291F40EC09D3249F0903369F449
:100E200041E024C052E0F52A84E0F82A28C098E086
:100E3000F92A25C0E0E1FE2A22C0F7FC29C0892F4B
:100E400080538A3070F4F6FE05C0989C902C1124D3
:100E5000980E15C0E89CE02C1124E80EF0E2FF2A61
:100E60000EC09E3229F4F6FC6BC140E4F42A07C0A0
:100E70009C3619F450E8F52A02C0983649F4F2017C
:100E800023FD959123FF91912F01992309F0B8CF6C
:100E9000892F8554833018F08052833038F444E031
:100EA00050E0A40EB51E5FE359830FC0933631F0B6
:100EB000933779F0933509F056C020C0F501808151
:100EC000898342E050E0A40EB51E610101E010E00C
:100ED00012C0F501C080D180F6FC03C06FEF7FEF38
:100EE00002C0692D70E042E050E0A40EB51EC601BC
:100EF0000E94B3088C015FE7F52214C0F501C080A1
:100F0000D180F6FC03C06FEF7FEF02C0692D70E067
:100F100042E050E0A40EB51EC6010E94A8088C0154
:100F200050E8F52AF3FE07C01AC080E290E0B30152
:100F30000E94BE08EA948E2D90E008171907A8F3C6
:100F40000EC0F601F7FC8591F7FE81916F0190E0EC
:100F5000B3010E94BE08E110EA940150104001154F
:100F6000110579F7EAC0943611F0993669F5F7FE64
:100F700008C0F501208131814281538184E090E0F5
:100F80000AC0F501808191819C01442737FD40957D
:100F9000542F82E090E0A80EB91E9FE6F92257FF79
:100FA00009C050954095309521953F4F4F4F5F4F69
:100FB000E0E8FE2ACA01B901A1012AE030E00E945E
:100FC000EA08D82ED21840C0953729F41F2D1F7E6D
:100FD0002AE030E01DC01F2D197F9F3661F0903749
:100FE00020F4983509F0ACC00FC0903739F098372D
:100FF00009F0A6C004C028E030E00AC0106114FD6A
:10100000146020E130E004C014FD166020E132E0FD
:1010100017FF08C0F501608171818281938144E0EE
:1010200050E008C0F50180819181BC0180E090E032
:1010300042E050E0A40EB51EA1010E94EA08D82E9D
:10104000D2188FE7F82EF122F6FE0BC05EEFF522E4
:10105000D91438F4F4FE07C0F2FC05C08FEEF82274
:1010600002C01D2D01C0192DF4FE0DC0FE01ED0DB5
:10107000F11D8081803319F499EEF92208C01F5FB9
:10108000F2FE05C003C08F2D867809F01F5F0F2D7B
:10109000F3FC14C0F0FE0FC01E1510F09D2C0BC009
:1010A0009D2C9E0C911A1E2D06C080E290E0B3018B
:1010B0000E94BE081F5F1E15C0F304C01E1510F469
:1010C000E11A01C0EE2404FF0FC080E390E0B301F9
:1010D0000E94BE0802FF1DC001FD03C088E790E02A
:1010E0000EC088E590E00BC0802F867891F001FF5C
:1010F00002C08BE201C080E2F7FC8DE290E0B30118
:101100000E94BE0806C080E390E0B3010E94BE08C2
:101110009A94D914C0F3DA94F101ED0DF11D808198
:1011200090E0B3010E94BE08DD20A9F706C080E26E
:1011300090E0B3010E94BE08EA94EE20C1F743CECE
:10114000F30166817781CB012B96E2E10C9464096F
:10115000FC010590615070400110D8F78095909582
:101160008E0F9F1F0895FC01615070400190011087
:10117000D8F7809590958E0F9F1F08950F931F931A
:10118000CF93DF938C01EB018B8181FF1BC082FF2A
:101190000DC02E813F818C819D812817390764F411
:1011A000E881F9810193F983E88306C0E885F98530
:1011B000802F0995892B31F48E819F8101969F8321
:1011C0008E8302C00FEF1FEFC801DF91CF911F91F7
:1011D0000F910895FA01AA27283051F1203181F1A9
:1011E000E8946F936E7F6E5F7F4F8F4F9F4FAF4F2F
:1011F000B1E03ED0B4E03CD0670F781F891F9A1F42
:10120000A11D680F791F8A1F911DA11D6A0F711DF5
:10121000811D911DA11D20D009F468943F912AE001
:10122000269F11243019305D3193DEF6CF010895E9
:10123000462F4770405D4193B3E00FD0C9F7F6CF1A
:10124000462F4F70405D4A3318F0495D31FD4052E2
:10125000419302D0A9F7EACFB4E0A6959795879578
:1012600077956795BA95C9F7009761057105089557
:101270009B01AC010A2E0694579547953795279503
:10128000BA95C9F7620F731F841F951FA01D08959B
:101290002F923F924F925F926F927F928F929F9286
:1012A000AF92BF92CF92DF92EF92FF920F931F9374
:1012B000CF93DF93CDB7DEB7CA1BDB0B0FB6F89425
:1012C000DEBF0FBECDBF09942A88398848885F8465
:1012D0006E847D848C849B84AA84B984C884DF80D6
:1012E000EE80FD800C811B81AA81B981CE0FD11DBA
:1012F0000FB6F894DEBF0FBECDBFED010895F89490
:02130000FFCF1D
:101302000A57484F5F414D5F4920283078303029D5
:101312003A20307825780A00534D504C52545F449D
:101322004956202830783135293A20307825780AF4
:1013320000444C50465F4653202830783136293AD3
:1013420020307825780A00494E545F4346472028CA
:1013520030783137293A20307825780A00494E54BE
:101362005F535441545553202830783141293A2053
:10137200307825780A0054454D505F4F55545F48E8
:10138200202830783142293A20307825780A0054D2
:10139200454D505F4F55545F4C20283078314329DA
:1013A2003A20307825780A004759524F5F584F55F6
:1013B200545F48202830783144293A203078257803
:1013C2000A004759524F5F584F55545F4C202830FE
:1013D200783145293A20307825780A004759524F0A
:1013E2005F594F55545F48202830783146293A20BA
:1013F200307825780A004759524F5F594F55545F4C
:101402004C202830783230293A20307825780A006A
:101412004759524F5F5A4F55545F4820283078320F
:1014220031293A20307825780A004759524F5F5ABD
:101432004F55545F4C202830783232293A20307888
:1014420025780A005057525F4D474D202830783397
:1014520045293A20307825780A000925640925644F
:101462000925640A000A4954472D3332303020439B
:101472006F6E66696775726174696F6E204D656E15
:1014820075002D2D2D2D2D2D2D2D2D2D2D2D2D2D6F
:101492002D2D2D2D2D2D2D2D2D2D2D2D2D003129A7
:1014A2002053747265616D2056616C7565730032EC
:1014B20029204368616E67652061766572616765A0
:1014C2002076616C7565202863757272656E746C26
:1014D20079202564290A003329204368616E6765F3
:1014E2002053616D706C6520526174652044697689
:1014F20069646572202863757272656E746C7920F6
:101502002564290A0034292041646A7573742064B1
:1015120069676974616C206C6F77207061737320E6
:1015220066696C746572202863757272656E746C7C
:1015320079202564290A0035292041646A7573746B
:1015420020506F776572204D616E6167656D656EC3
:1015520074205265676973746572202863757272AC
:10156200656E746C792030782578290A0036292036
:101572005669657720616C6C204954472D333230AF
:101582003020526567697374657273000A5374720E
:1015920065616D696E672C20707265737320616E70
:1015A20079206B657920746F2073746F702E2E2EE4
:1015B2000A00436F756E7409207809207909207A30
:1015C200002D2D2D2D2D092D2D2D092D2D2D092DE2
:1015D2002D2D00256C643A000A54797065207468D8
:1015E20065206E6577206176657261676520766138
:1015F2006C756520666F6C6C6F776564206279200C
:1016020074686520656E746572206B65792E2E2E66
:10161200002564000A5479706520746865206E653F
:10162200772073616D706C652072617465206469E6
:1016320076696465722028302D3235352920666F2F
:101642006C6C6F7765642062792074686520656EC2
:10165200746572206B65792E2E2E0053616D706C4D
:10166200652052617465203D2028384B487A206FEE
:101672007220314B487A205B64657465726D696EC5
:10168200656420627920444C50465D292F286469A4
:101692007669646572202B3129000A5479706520BD
:1016A200746865206E657720444C50462076616CE4
:1016B20075652028302D36292E2E2E00444C50469A
:1016C200094C50462D42570953616D706C6520528A
:1016D200617465003009323536487A09386B487AC8
:1016E200003109313838487A09316B487A003209B9
:1016F2003938487A09316B487A0033093432487AEA
:1017020009316B487A0034093230487A09316B4822
:101712007A0035093130487A09316B487A00360946
:1017220035487A09316B487A00496E76616C696492
:10173200000A456E746572206120382D626974203A
:101742006865782076616C75652E2E2E00307800E3
:101752002578000000000200000000AA010000003D
:02176200000085
:00000001FF
